{
  "contractName": "ERC20Token",
  "abi": [
    {
      "constant": true,
      "inputs": [],
      "name": "name",
      "outputs": [
        {
          "name": "",
          "type": "string"
        }
      ],
      "payable": false,
      "stateMutability": "view",
      "type": "function"
    },
    {
      "constant": true,
      "inputs": [],
      "name": "totalSupply",
      "outputs": [
        {
          "name": "",
          "type": "uint256"
        }
      ],
      "payable": false,
      "stateMutability": "view",
      "type": "function"
    },
    {
      "constant": true,
      "inputs": [],
      "name": "decimals",
      "outputs": [
        {
          "name": "",
          "type": "uint8"
        }
      ],
      "payable": false,
      "stateMutability": "view",
      "type": "function"
    },
    {
      "constant": true,
      "inputs": [
        {
          "name": "",
          "type": "address"
        }
      ],
      "name": "balanceOf",
      "outputs": [
        {
          "name": "",
          "type": "uint256"
        }
      ],
      "payable": false,
      "stateMutability": "view",
      "type": "function"
    },
    {
      "constant": true,
      "inputs": [],
      "name": "symbol",
      "outputs": [
        {
          "name": "",
          "type": "string"
        }
      ],
      "payable": false,
      "stateMutability": "view",
      "type": "function"
    },
    {
      "constant": true,
      "inputs": [
        {
          "name": "",
          "type": "address"
        },
        {
          "name": "",
          "type": "address"
        }
      ],
      "name": "allowance",
      "outputs": [
        {
          "name": "",
          "type": "uint256"
        }
      ],
      "payable": false,
      "stateMutability": "view",
      "type": "function"
    },
    {
      "inputs": [],
      "payable": false,
      "stateMutability": "nonpayable",
      "type": "constructor"
    },
    {
      "anonymous": false,
      "inputs": [
        {
          "indexed": true,
          "name": "from",
          "type": "address"
        },
        {
          "indexed": true,
          "name": "to",
          "type": "address"
        },
        {
          "indexed": false,
          "name": "value",
          "type": "uint256"
        }
      ],
      "name": "Transfer",
      "type": "event"
    },
    {
      "anonymous": false,
      "inputs": [
        {
          "indexed": true,
          "name": "from",
          "type": "address"
        },
        {
          "indexed": false,
          "name": "value",
          "type": "uint256"
        },
        {
          "indexed": true,
          "name": "to",
          "type": "address"
        },
        {
          "indexed": false,
          "name": "extraData",
          "type": "bytes"
        }
      ],
      "name": "Approval",
      "type": "event"
    },
    {
      "constant": false,
      "inputs": [
        {
          "name": "to",
          "type": "address"
        },
        {
          "name": "value",
          "type": "uint256"
        }
      ],
      "name": "transfer",
      "outputs": [],
      "payable": false,
      "stateMutability": "nonpayable",
      "type": "function"
    },
    {
      "constant": false,
      "inputs": [
        {
          "name": "from",
          "type": "address"
        },
        {
          "name": "to",
          "type": "address"
        },
        {
          "name": "value",
          "type": "uint256"
        }
      ],
      "name": "transferFrom",
      "outputs": [
        {
          "name": "success",
          "type": "bool"
        }
      ],
      "payable": false,
      "stateMutability": "nonpayable",
      "type": "function"
    },
    {
      "constant": false,
      "inputs": [
        {
          "name": "spender",
          "type": "address"
        },
        {
          "name": "value",
          "type": "uint256"
        },
        {
          "name": "extraData",
          "type": "bytes"
        }
      ],
      "name": "approve",
      "outputs": [
        {
          "name": "success",
          "type": "bool"
        }
      ],
      "payable": false,
      "stateMutability": "nonpayable",
      "type": "function"
    }
  ],
  "bytecode": "0x608060405234801561001057600080fd5b50610c44806100206000396000f300608060405260043610610099576000357c0100000000000000000000000000000000000000000000000000000000900463ffffffff16806306fdde031461009e57806318160ddd1461012e57806323b872dd14610159578063313ce567146101de5780635c17f9f41461020f57806370a08231146102ba57806395d89b4114610311578063a9059cbb146103a1578063dd62ed3e146103ee575b600080fd5b3480156100aa57600080fd5b506100b3610465565b6040518080602001828103825283818151815260200191508051906020019080838360005b838110156100f35780820151818401526020810190506100d8565b50505050905090810190601f1680156101205780820380516001836020036101000a031916815260200191505b509250505060405180910390f35b34801561013a57600080fd5b5061014361049e565b6040518082815260200191505060405180910390f35b34801561016557600080fd5b506101c4600480360381019080803573ffffffffffffffffffffffffffffffffffffffff169060200190929190803573ffffffffffffffffffffffffffffffffffffffff169060200190929190803590602001909291905050506104a4565b604051808215151515815260200191505060405180910390f35b3480156101ea57600080fd5b506101f3610656565b604051808260ff1660ff16815260200191505060405180910390f35b34801561021b57600080fd5b506102a0600480360381019080803573ffffffffffffffffffffffffffffffffffffffff16906020019092919080359060200190929190803590602001908201803590602001908080601f016020809104026020016040519081016040528093929190818152602001838380828437820191505050505050919291929050505061065b565b604051808215151515815260200191505060405180910390f35b3480156102c657600080fd5b506102fb600480360381019080803573ffffffffffffffffffffffffffffffffffffffff1690602001909291905050506107bb565b6040518082815260200191505060405180910390f35b34801561031d57600080fd5b506103266107d3565b6040518080602001828103825283818151815260200191508051906020019080838360005b8381101561036657808201518184015260208101905061034b565b50505050905090810190601f1680156103935780820380516001836020036101000a031916815260200191505b509250505060405180910390f35b3480156103ad57600080fd5b506103ec600480360381019080803573ffffffffffffffffffffffffffffffffffffffff1690602001909291908035906020019092919050505061080c565b005b3480156103fa57600080fd5b5061044f600480360381019080803573ffffffffffffffffffffffffffffffffffffffff169060200190929190803573ffffffffffffffffffffffffffffffffffffffff16906020019092919050505061081b565b6040518082815260200191505060405180910390f35b6040805190810160405280600d81526020017f4d69746872696c20546f6b656e0000000000000000000000000000000000000081525081565b60005481565b6000600260008573ffffffffffffffffffffffffffffffffffffffff1673ffffffffffffffffffffffffffffffffffffffff16815260200190815260200160002060003373ffffffffffffffffffffffffffffffffffffffff1673ffffffffffffffffffffffffffffffffffffffff16815260200190815260200160002054821115151561053157600080fd5b6105c082600260008773ffffffffffffffffffffffffffffffffffffffff1673ffffffffffffffffffffffffffffffffffffffff16815260200190815260200160002060003373ffffffffffffffffffffffffffffffffffffffff1673ffffffffffffffffffffffffffffffffffffffff1681526020019081526020016000205461084090919063ffffffff16565b600260008673ffffffffffffffffffffffffffffffffffffffff1673ffffffffffffffffffffffffffffffffffffffff16815260200190815260200160002060003373ffffffffffffffffffffffffffffffffffffffff1673ffffffffffffffffffffffffffffffffffffffff1681526020019081526020016000208190555061064b848484610859565b600190509392505050565b601281565b600082600260003373ffffffffffffffffffffffffffffffffffffffff1673ffffffffffffffffffffffffffffffffffffffff16815260200190815260200160002060008673ffffffffffffffffffffffffffffffffffffffff1673ffffffffffffffffffffffffffffffffffffffff168152602001908152602001600020819055508373ffffffffffffffffffffffffffffffffffffffff163373ffffffffffffffffffffffffffffffffffffffff167f4f2ccab30e52b306d3db2a1a0de078b7086c50ed233ea398995eaf7d64ac63be85856040518083815260200180602001828103825283818151815260200191508051906020019080838360005b8381101561077557808201518184015260208101905061075a565b50505050905090810190601f1680156107a25780820380516001836020036101000a031916815260200191505b50935050505060405180910390a3600190509392505050565b60016020528060005260406000206000915090505481565b6040805190810160405280600481526020017f4d4954480000000000000000000000000000000000000000000000000000000081525081565b610817338383610859565b5050565b6002602052816000526040600020602052806000526040600020600091509150505481565b600082821115151561084e57fe5b818303905092915050565b600081600160008673ffffffffffffffffffffffffffffffffffffffff1673ffffffffffffffffffffffffffffffffffffffff16815260200190815260200160002054101515156108a957600080fd5b600160008473ffffffffffffffffffffffffffffffffffffffff1673ffffffffffffffffffffffffffffffffffffffff1681526020019081526020016000205482600160008673ffffffffffffffffffffffffffffffffffffffff1673ffffffffffffffffffffffffffffffffffffffff168152602001908152602001600020540111151561093757600080fd5b6109c8600160008573ffffffffffffffffffffffffffffffffffffffff1673ffffffffffffffffffffffffffffffffffffffff16815260200190815260200160002054600160008773ffffffffffffffffffffffffffffffffffffffff1673ffffffffffffffffffffffffffffffffffffffff16815260200190815260200160002054610bfa90919063ffffffff16565b9050610a1c82600160008773ffffffffffffffffffffffffffffffffffffffff1673ffffffffffffffffffffffffffffffffffffffff1681526020019081526020016000205461084090919063ffffffff16565b600160008673ffffffffffffffffffffffffffffffffffffffff1673ffffffffffffffffffffffffffffffffffffffff16815260200190815260200160002081905550610ab182600160008673ffffffffffffffffffffffffffffffffffffffff1673ffffffffffffffffffffffffffffffffffffffff16815260200190815260200160002054610bfa90919063ffffffff16565b600160008573ffffffffffffffffffffffffffffffffffffffff1673ffffffffffffffffffffffffffffffffffffffff168152602001908152602001600020819055508273ffffffffffffffffffffffffffffffffffffffff168473ffffffffffffffffffffffffffffffffffffffff167fddf252ad1be2c89b69c2b068fc378daa952ba7f163c4a11628f55a4df523b3ef846040518082815260200191505060405180910390a380610beb600160008673ffffffffffffffffffffffffffffffffffffffff1673ffffffffffffffffffffffffffffffffffffffff16815260200190815260200160002054600160008873ffffffffffffffffffffffffffffffffffffffff1673ffffffffffffffffffffffffffffffffffffffff16815260200190815260200160002054610bfa90919063ffffffff16565b141515610bf457fe5b50505050565b6000808284019050838110151515610c0e57fe5b80915050929150505600a165627a7a7230582048decb0ed46b6f89fbca6d5377d0edc0c291e04d45f1178ffdeffbefdfdfcd400029",
  "source": "pragma solidity ^0.4.18;\n\n/**\n * @title SafeMath\n * @dev Math operations with safety checks that throw on error\n */\nlibrary SafeMath {\n\n    function sub(uint256 a, uint256 b) internal pure returns (uint256) {\n        assert(b <= a);\n        return a - b;\n    }\n\n    function add(uint256 a, uint256 b) internal pure returns (uint256) {\n        uint256 c = a + b;\n        assert(c >= a);\n        return c;\n    }\n}\n\n/**\n * @title Owned\n * @dev Ownership model\n */\ncontract Owned {\n    address public owner;\n\n    event OwnershipTransfered(address indexed owner);\n\n    function Owned() public {\n        owner = msg.sender;\n    }\n\n    modifier onlyOwner {\n        require(msg.sender == owner);\n        _;\n    }\n\n    function transferOwnership(address newOwner) onlyOwner public {\n        owner = newOwner;\n        OwnershipTransfered(owner);\n    }\n}\n\n/**\n * @title ERC20Token\n * @dev Interface for erc20 standard\n */\ncontract ERC20Token {\n\n    using SafeMath for uint256;\n\n    string public constant name = \"Mithril Token\";\n    string public constant symbol = \"MITH\";\n    uint8 public constant decimals = 18;\n    uint256 public totalSupply;\n\n    mapping (address => uint256) public balanceOf;\n    mapping (address => mapping (address => uint256)) public allowance;\n\n    event Transfer(address indexed from, address indexed to, uint256 value);\n    event Approval(address indexed from, uint256 value, address indexed to, bytes extraData);\n\n    function ERC20Token() public {\n    }\n\n    /**\n     * Internal transfer, only can be called by this contract\n     */\n    function _transfer(address from, address to, uint256 value) internal {\n        // Check if the sender has enough balance\n        require(balanceOf[from] >= value);\n\n        // Check for overflow\n        require(balanceOf[to] + value > balanceOf[to]);\n\n        // Save this for an amount double check assertion\n        uint256 previousBalances = balanceOf[from].add(balanceOf[to]);\n\n        balanceOf[from] = balanceOf[from].sub(value);\n        balanceOf[to] = balanceOf[to].add(value);\n\n        Transfer(from, to, value);\n\n        // Asserts for duplicate check. Should never fail.\n        assert(balanceOf[from].add(balanceOf[to]) == previousBalances);\n    }\n\n    /**\n     * Transfer tokens\n     *\n     * Send `value` tokens to `to` from your account\n     *\n     * @param to The address of the recipient\n     * @param value the amount to send\n     */\n    function transfer(address to, uint256 value) public {\n        _transfer(msg.sender, to, value);\n    }\n\n    /**\n     * Transfer tokens from other address\n     *\n     * Send `value` tokens to `to` in behalf of `from`\n     *\n     * @param from The address of the sender\n     * @param to The address of the recipient\n     * @param value the amount to send\n     */\n    function transferFrom(address from, address to, uint256 value) public returns (bool success) {\n        require(value <= allowance[from][msg.sender]);\n        allowance[from][msg.sender] = allowance[from][msg.sender].sub(value);\n        _transfer(from, to, value);\n        return true;\n    }\n\n    /**\n     * Set allowance for other address\n     *\n     * Allows `spender` to spend no more than `value` tokens in your behalf\n     *\n     * @param spender The address authorized to spend\n     * @param value the max amount they can spend\n     * @param extraData some extra information to send to the approved contract\n     */\n    function approve(address spender, uint256 value, bytes extraData) public returns (bool success) {\n        allowance[msg.sender][spender] = value;\n        Approval(msg.sender, value, spender, extraData);\n        return true;\n    }\n}\n\n/**\n * @title MithrilToken\n * @dev MithrilToken\n */\ncontract MithrilToken is Owned, ERC20Token {\n\n    // Address where funds are collected.\n    address public vault;\n    address public wallet;\n\n    function MithrilToken() public {\n    }\n\n    function init(uint256 _supply, address _vault, address _wallet) public onlyOwner {\n        require(vault == 0x0);\n        require(_vault != 0x0);\n\n        totalSupply = _supply;\n        vault = _vault;\n        wallet = _wallet;\n        balanceOf[vault] = totalSupply;\n    }\n\n    function () payable public {\n        wallet.transfer(msg.value);\n    }\n}",
  "sourcePath": "/Users/phyrex/Documents/git/portal.network/mns/mns/contracts/MithrilToken.sol",
  "compiler": {
    "name": "solc",
    "version": "0.4.24+commit.e67f0147.Emscripten.clang"
  },
  "schemaVersion": "2.0.1",
  "updatedAt": "2018-09-09T12:35:45.505Z"
}