{
  "contractName": "MNSRegistrar",
  "abi": [
    {
      "inputs": [
        {
          "name": "mnsAddr",
          "type": "address"
        },
        {
          "name": "mithrilTokenAddr",
          "type": "address"
        },
        {
          "name": "node",
          "type": "bytes32"
        }
      ],
      "payable": false,
      "stateMutability": "nonpayable",
      "type": "constructor"
    },
    {
      "constant": false,
      "inputs": [
        {
          "name": "subnode",
          "type": "string"
        },
        {
          "name": "owner",
          "type": "address"
        },
        {
          "name": "price",
          "type": "uint256"
        }
      ],
      "name": "register",
      "outputs": [],
      "payable": false,
      "stateMutability": "nonpayable",
      "type": "function"
    }
  ],
  "bytecode": "0x608060405234801561001057600080fd5b50604051606080610347833981018060405281019080805190602001909291908051906020019092919080519060200190929190505050826000806101000a81548173ffffffffffffffffffffffffffffffffffffffff021916908373ffffffffffffffffffffffffffffffffffffffff16021790555081600160006101000a81548173ffffffffffffffffffffffffffffffffffffffff021916908373ffffffffffffffffffffffffffffffffffffffff1602179055508060028160001916905550505050610262806100e56000396000f300608060405260043610610041576000357c0100000000000000000000000000000000000000000000000000000000900463ffffffff168063d393c87114610046575b600080fd5b34801561005257600080fd5b506100d7600480360381019080803590602001908201803590602001908080601f0160208091040260200160405190810160405280939291908181526020018383808284378201915050505050509192919290803573ffffffffffffffffffffffffffffffffffffffff169060200190929190803590602001909291905050506100d9565b005b6000809054906101000a900473ffffffffffffffffffffffffffffffffffffffff1673ffffffffffffffffffffffffffffffffffffffff166306ab5923600254856040518082805190602001908083835b60208310151561014f578051825260208201915060208101905060208303925061012a565b6001836020036101000a0380198251168184511680821785525050505050509050019150506040518091039020856040518463ffffffff167c010000000000000000000000000000000000000000000000000000000002815260040180846000191660001916815260200183600019166000191681526020018273ffffffffffffffffffffffffffffffffffffffff1673ffffffffffffffffffffffffffffffffffffffff1681526020019350505050600060405180830381600087803b15801561021957600080fd5b505af115801561022d573d6000803e3d6000fd5b505050505050505600a165627a7a723058202b389d63d853a1b0b00895b224ed1394d9e2a813ef31051924a76a6e44ba50c50029",
  "source": "pragma solidity ^0.4.18;\n\nimport './MNS.sol';\nimport './MithrilToken.sol';\n\n/**\n * A registrar that allocates subdomains to the first person to claim them.\n */\ncontract MNSRegistrar {\n    MNS mns;\n    MithrilToken mithrilToken;\n    bytes32 rootNode;\n\n    modifier only_owner(string subnode) {\n        address currentOwner = mns.owner(keccak256(rootNode, keccak256(subnode)));\n        require(currentOwner == 0 || currentOwner == msg.sender);\n        _;\n    }\n\n    /**\n     * Constructor.\n     */\n    function MNSRegistrar(MNS mnsAddr, MithrilToken mithrilTokenAddr, bytes32 node) public {\n        mns = mnsAddr;\n        mithrilToken = mithrilTokenAddr;\n        rootNode = node;\n    }\n\n    /**\n     * transfer from money to contract\n     */\n\n    /**\n     * Register a name, or change the owner of an existing registration.\n     * @param subnode The hash of the label to register.\n     * @param owner The address of the new owner.\n     */\n    function register(string subnode, address owner, uint256 price) public {\n        // direct purchase\n        // invoke MithrilToken to tranfer token to \n        // add logic for domain\n        //uint256 allowance = mithrilToken.allowance[msg.sender][0x0];\n        //mithrilToken.transferFrom(msg.sender, address(this), 1);\n        mns.setSubnodeOwner(rootNode, keccak256(subnode), owner);\n    }\n\n    /**\n     * Process\n     * 1. User send MithrilToken approve to MNSRegistrar\n     * 2. User send MNSRegistrar register claim MNS\n     */\n}",
  "sourcePath": "/Users/phyrex/Documents/git/portal.network/mns/mns/contracts/MNSRegistrar.sol",
  "compiler": {
    "name": "solc",
    "version": "0.4.24+commit.e67f0147.Emscripten.clang"
  },
  "schemaVersion": "2.0.1",
  "updatedAt": "2018-09-09T12:35:46.035Z"
}